:020000040800F2
:1000000010040020A9010008B1010008B301000894
:10001000B5010008B7010008B901000800000000A0
:10002000000000000000000000000000BB0100080C
:10003000BD01000800000000BF010008190200080F
:10004000C3010008C3010008C3010008C301000880
:10005000C3010008C3010008C3010008C301000870
:10006000C3010008C3010008C3010008C301000860
:10007000C3010008C3010008C3010008C301000850
:10008000C3010008C3010008C3010008000000000C
:10009000000000000000000000000000C301000894
:1000A000C3010008C3010008C3010008C301000820
:1000B000C3010008C3010008C3010008C301000810
:1000C000C3010008C3010008C3010008C301000800
:1000D000C3010008C3010008C301000800000000BC
:1000E000C3010008C3010008C301000800000000AC
:1000F000000000000000000000000000C301000834
:1001000000000000C3010008C3010008C30100088B
:1001100000000000000000000000000000000000DF
:10012000C3010008C3010008C3010008C30100089F
:10013000C3010008000000000000000000000000F3
:10014000000000000000000000000000C3010008E3
:10015000C3010008C3010008C3010008C30100086F
:10016000C3010008C30100080000000000000000F7
:10017000000000000000000000000000000000007F
:1001800000000000C30100080000000000000000A3
:10019000C3010008DFF80CD000F018F80048004751
:1001A00069070008100400200648804706480047F9
:1001B000FEE7FEE7FEE7FEE7FEE7FEE7FEE7FEE717
:1001C000FEE7FEE7E902000895010008064C074D2E
:1001D00006E0E06840F0010394E807009847103417
:1001E000AC42F6D3FFF7DAFF6C0800088C08000871
:1001F00010B5002100230022034600BF08E00022C2
:1002000001E000BF521C42F21074A242F9D3491C13
:100210009942F4D310BD000002480068401C014917
:10022000086070470000002070B500200022022303
:1002300000240221274D2D6805F00C0020B1042870
:1002400006D0082834D107E0234D244E356033E032
:10025000234D224E35602FE01E4D2D1F2D68C5F316
:1002600080541C4D2D1F2D6805F03F0154B11C4DCD
:10027000B5FBF1F5174E361F3668C6F3881605FB39
:1002800006F209E0144DB5FBF1F5124E361F366843
:10029000C6F3881605FB06F20E4D2D1F2D68C5F31B
:1002A00001456D1C6B00B2FBF3F50C4E356003E0AD
:1002B000094D0A4E356000BF00BF064D2D68C5F3DD
:1002C0000315084E705D054D2D68C540034E356021
:1002D00070BD0000083802400024F4000C0000202B
:1002E00040787D01540800080548006840F470001B
:1002F000034908604FF00060014980390860704789
:1003000088ED00E002E008C8121F08C1002AFAD1F7
:1003100070477047002001E001C1121F002AFBD185
:10032000704700B500F0E6F9802000F091F9502008
:1003300000F0B6F9522000F0B3F9452000F0B0F912
:10034000532000F0ADF9532000F0AAF9202000F06E
:10035000A7F9312000F0A4F9202000F0A1F94620EF
:1003600000F09EF94F2000F09BF9522000F098F920
:10037000202000F095F9432000F092F9412000F090
:100380008FF94B2000F08CF9452000F089F9C0204E
:1003900000F05EF9502000F083F9522000F080F95F
:1003A000452000F07DF9532000F07AF9532000F049
:1003B00077F9202000F074F9322000F071F9202044
:1003C00000F06EF9462000F06BF94F2000F068F95C
:1003D000522000F065F9202000F062F94C2000F076
:1003E0005FF9412000F05CF9592000F059F95320E1
:1003F00000F056F9C02000F02BF9502000F050F921
:10040000522000F04DF9452000F04AF9532000F049
:1004100047F9532000F044F9202000F041F933203F
:1004200000F03EF9202000F03BF9462000F038F9BA
:100430004F2000F035F9522000F032F9202000F072
:100440002FF9432000F02CF94F2000F029F94B2020
:1004500000F026F9452000F023F900BD4FF480514B
:100460005B4A11830A2815D2DFE800F0051526380B
:10047000495B6D7F8F9F4FF40051564A11804900B0
:10048000118049001180C911514A5183490051839B
:100490008900118399E04FF400514E4A11804900C0
:1004A000921E118049001180C911494A51834900A7
:1004B00051838900518388E04FF40051454A921ED0
:1004C0001180490011804900921C1180C911404AD5
:1004D0001183490011838900118376E04FF40051A4
:1004E0003C4A921E11804900118049001180C911B7
:1004F000374A1183490051838900118365E04FF425
:100500000051344A921E11804900921C118049000A
:100510001180C9112E4A118349001183890051832A
:1005200053E04FF400512B4A11804900921E118074
:100530004900921C1180C911254A51834900118339
:100540008900518341E04FF40051224A1180490053
:10055000921E11804900921C1180C9111C4A5183BE
:1005600049005183890051832FE04FF40051194A0B
:1005700011804900118049001180C911144A11836A
:1005800049001183890011831FE04FF40051114A83
:1005900011804900118049001180C9110C4A518312
:1005A00049005183890051830FE04FF40051094AFB
:1005B00011804900118049001180C911044A11833A
:1005C000490011838900518300BF00BF70470000BC
:1005D000000002401A04024010B500241B480069C4
:1005E00000F0010060B101240120FFF737FF00F0A7
:1005F000F9F80120FFF7FCFD00201449086123E011
:100600001248006900F0020002280BD10224FFF713
:1006100025FF00F081F80120FFF7EAFD00200B49DB
:10062000086111E00948006900F0040004280BD1BA
:1006300003240320FFF712FF00F082F80120FFF7E8
:10064000D7FD00200149086110BD000000000240F4
:1006500070B504460025002625434FF480700E49EE
:1006600008800E480560881F006820F0FF00891F81
:100670000860084600680949096808430649891F57
:1006800008600815091D08803220FFF7B1FD4FF4FE
:1006900080600149088070BD1A04024004000020F7
:1006A00070B504460025002625434FF480700F499D
:1006B00008800F480560081F006820F0FF00091F30
:1006C0000860084600680A49096808430749091F85
:1006D00008600815091D08803220FFF789FD4FF4D6
:1006E00080600249891C088070BD00001804024027
:1006F0000400002000B50A20FFF77AFD3820FFF73C
:10070000A7FF0C20FFF7A4FF0120FFF7A1FF0A209D
:10071000FFF76EFD00BD000000B50848406940F4D9
:1007200080600649486140F6B830FFF761FD034834
:10073000406920F480600149486100BD000002402A
:1007400000B50848006840F480500649086040F64B
:10075000B830FFF74DFD0348006820F48050014990
:10076000086000BD14040240FFF75EFD19480068F0
:1007700040F00100174908600846006840F0020098
:1007800008600846006840F0040008604FF05530EB
:10079000114908600020091D08604FF0AA30091DAA
:1007A00008600020091D08600C480D490860002001
:1007B00048604FF0AA30886044F2AA00C860012463
:1007C00007E002E0FFF7ADFD641C022CFADBFFF747
:1007D00003FFF6E73038024000040240401555019F
:1007E0000000024010B530E00820194908831020AD
:1007F000488320204883402048830520FFF7F8FCE9
:100800000820134948831020088320204883402073
:1008100048830520FFF7ECFC08200D494883102091
:10082000488320200883402048830520FFF7E0FC10
:10083000082007494883102048832020488340200F
:1008400008830520FFF7D4FC641C352CCCDB10BDDD
:10085000000002400000000000000000010203044C
:100860000607080900000000010203048C080008C4
:100870000000002010000000040300089C0800088D
:100880001000002000040000140300080000000015
:0C08900000000000000000000024F40044
:040000050800019559
:00000001FF
